:10000000A6EF01F00000000000EF00F0000000008B
:0A0010000000000000000000F3D71C
:10001C00240E0C6EB50E0D6E0D2EFED70C2EFCD7CD
:06002C00000000001200BC
:0C003200000000000000000000001200B0
:0A003E00530E0D6E0D2EFED71200BA
:1000480000016BBF02D0819001D081806BBD02D0CE
:10005800819201D081826BBB02D0819401D08184CE
:100068006BB902D0819601D081865DB002D0818AB9
:1000780001D0819A8188D9DF81986BB702D08190AD
:1000880001D081806BB502D0819201D081826BB39F
:1000980002D0819401D081846BB102D0819601D0C5
:1000A80081865DB002D0818A01D0819A8188BDDFC6
:0E00B80081985DA002D0AEDF01D0BDDF120046
:0C00C6005D906AC06BF0BDDF5D80120031
:1000D200086A096A100E0C6E01340836093604509B
:1000E200085E0550D8A0053C095ED8B007D0045080
:1000F20008260550D8B0053C0926D89000360136AE
:060102000C2EEAD71200EA
:1001080010D0800E0001656F1AD0C00E656F17D031
:10011800940E656F14D0D40E656F11D0800E656F84
:100128000ED000016551010AECE06551020AEDE0CC
:100138006551030AEDE06551040AEDE0EFD7660565
:10014800006E6551002600C065F05D8000C06BF050
:0E01580077DF5D9067C06BF073DF5D80120093
:1001660095908390750E0C6EE10E0D6E0D2EFED7DA
:100176000C2EFCD78380310E0D6E0D2EFED700009F
:060186000000958012004C
:10018C009398939A93969394939293908198819A3F
:10019C0081908192819481963BDF3ADF39DF8184B3
:1001AC008186818840DF819833DF81883CDF8198AC
:1001BC002FDF818838DF81982BDF8196818833DFB0
:1001CC00819826DF81882FDF8198819481808188B6
:1001DC002ADF81981DDF81908186818824DF8198B8
:1001EC008196818820DF819813DF81881CDF8198BC
:1001FC008186818818DF81980BDF8196818813DFD7
:10020C008198818081828184818681880CDF8198AC
:06021C00FFDE5D80120010
:100222000900F5CFE6FF0006FBE10106F9E1120045
:1002320010D0800E0001656F1AD0C00E656F17D006
:10024200940E656F14D0D40E656F11D0800E656F59
:100252000ED000016551010AECE06551020AEDE0A1
:100262006551030AEDE06551040AEDE0EFD766053A
:10027200006E6551002600C065F000C06BF0E3DE41
:100282005D90696B69516725E96E000E6821EA6E1F
:10029200EE520BE069516725E96E000E6821EA6EA5
:0E02A200EECF6AF00FDF692BEDD75D80120002
:1002B000036A080E035C30E283B001D0FDD7310E33
:1002C0000D6E0D2EFED70000000083B011D003503C
:1002D0000708006E00C001F0010E006E015004E03E
:1002E00000360090FF0FFBD7001E0050021612D000
:1002F00003500708006E00C001F0010E006E0150AF
:1003000004E000360090FF0FFBD70050021283A0DC
:0E03100001D0FDD7032ACDD702C000F01200A5
:10031E000001606B420E0D6E0D2EFED7000083B0F5
:10032E000DD0850E0D6E0D2EFED783A002D0010EC0
:0E033E00606F420E0D6E0D2EFED700001200F5
:10034C00D7EC02F0C26A0F0EC16E9592946A18DF58
:10035C000C0E00016B6F72DE010E6B6F6FDEFDDE3B
:10036C00D8DF6051010AD8A4B7D09CDF00C063F07D
:10037C0099DF00C064F096DF00C05EF093DF00C030
:10038C005FF090DF00C061F0000E0001626F6451FD
:10039C006325006E016A000E01225E500026000EDD
:1003AC0001225F500026000E0122FF0E0014026E87
:1003BC0001C003F0000E03166251031802E1025053
:1003CC006119D8A479D05EC059F0000E5A6E63C082
:1003DC005BF0000E5C6E010E656F060E666F150EFF
:1003EC00676F000E686F1FDF020E656F020E666F7F
:1003FC001F0E676F000E686F16DF010E656F0C0E17
:10040C00666F0A0E046E000E056E59C000F05AC0DD
:10041C0001F059DE0A0E046E000E056E54DE08C0A3
:10042C0000F009C001F00050300F676F67DE010E5D
:10043C00656F0D0E666F0A0E046E000E056E59C0C8
:10044C0000F05AC001F03FDE08C000F009C001F016
:10045C000050300F676F52DE020E656F0C0E666F28
:10046C000A0E046E000E056E5BC000F05CC001F05D
:10047C002ADE0A0E046E000E056E25DE08C000F0A2
:10048C0009C001F00050300F676F38DE020E656F47
:10049C000D0E666F0A0E046E000E056E5BC000F04A
:1004AC005CC001F010DE08C000F009C001F0005083
:1004BC00300F676F23DE0FD00C0E6B6FBFDD010E9C
:1004CC006B6FBCDD010E656F010E666F490E676FB9
:1004DC00000E686FA8DE12D0010E656F030E666FFA
:1004EC003D0E676F000E686F9EDE020E656F010E8B
:1004FC00666F2D0E676F000E686F95DE1A0E0B6E11
:10050C005E0E0C6E6E0E0D6E0D2EFED70C2EFCD7E5
:10051C000B2EFAD70000000E006E5A50005C02E160
:10052C005950230802E282848292000E5A5C02E146
:10053C00140E595C02E282948282000E5C5C02E131
:10054C00320E5B5CD8A0829E000E006E5C50005C8C
:0E055C0002E15B505008D8A0828E01D7FFD775
:1005AE0010EE15F0440E006E010E016E6A0EF66E20
:0E05BE00050EF76E000EF86E11EC01F0120043
:0A056A0054656D703A202020430014
:0E05740048756D69646974793A20202025006D
:1005820066726F6D207468652073656E736F72009A
:0C0592004E6F20726573706F6E73650011
:10059E00436865636B2073756D206572726F7200B0
:020000040030CA
:0E000000000C1F1EFF8381FF0FC00FE00F409A
:00000001FF
